:100000000C9453010C9470010C9470010C947001C9
:100010000C9470010C9470010C9470010C9470019C
:100020000C9470010C9470010C9470010C94E10814
:100030000C94B5080C9470010C9470010C94700130
:100040000C9470010C9470010C9470010C9470016C
:100050000C94700174626E6779206F68750770691F
:1000600008110F0D7672666D6365646C7877736B3B
:100070007A71616A37303134382032353907333696
:1000800008110F0D213D26223F3A24272C2F134023
:100090002E2D125F28405C3C29205E3E3D07267EC7
:1000A00008110F0D217D2F7C3F7B2A242C5D2D23F1
:1000B0002E5B2B25000000000000065F06000703F2
:1000C000000703247E247E24242B6A120063130875
:1000D000646336495620500007030000003E41008B
:1000E0000000413E0000083E1C3E0808083E08088B
:1000F00000E06000000808080808006060000020B8
:10010000100804023E5149453E00427F40006251C2
:1001100049494622494949361814127F102F494946
:1001200049313C4A49493001710905033649494979
:1001300036064949291E006C6C000000EC6C00007A
:1001400008142241002424242424004122140802FB
:10015000015909063E415D551E7E1111117E7F49F0
:100160004949363E414141227F4141413E7F494913
:1001700049417F090909013E4149497A7F08080838
:100180007F00417F4100304040403F7F08142241C2
:100190007F404040407F0204027F7F0204087F3E90
:1001A0004141413E7F090909063E4151215E7F09D7
:1001B000091966264949493201017F01013F404042
:1001C000403F1F2040201F3F403C403F6314081425
:1001D0006307087008077149454300007F414100EB
:1001E00002040810200041417F0004020102048043
:1001F00080808080000307000020545454787F449E
:100200004444383844444428384444447F3854549F
:100210005408087E09090018A4A4A47C7F0404786B
:100220000000007D40004080847D007F1028440055
:1002300000007F40007C041804787C0404780038B7
:1002400044444438FC4444443838444444FC4478EE
:100250004404080854545420043E4424003C4020E4
:100260007C001C2040201C3C6030603C6C10106CFA
:10027000009CA0603C006454544C00083E41410086
:1002800000007700000041413E0802010201003CED
:100290002623263C496E697469616C6973617469CF
:1002A0006F6E2E2E2E0011241FBECFE5D4E0DEBFD0
:1002B000CDBF10E0A0E6B0E0E8E7F2E102C00590B3
:1002C0000D92A236B107D9F724E0A2E6B0E001C052
:1002D0001D92A233B207E1F70E942C060C943A0952
:1002E0000C940000CF93C82F80E3C43630F08CE923
:1002F0008C0F843670F0C85C82E30E94AB0880E308
:10030000CA3050F40E94AB0880E38C0FCF910C945C
:10031000AB08C82F81E3F1CF8F5FCA50F1CFCF93E5
:10032000C62F579854988BE10E94AB088BE50E942A
:10033000AB088C2F0E94AB082FEF8FEA91E0215081
:1003400080409040E1F700C00000579A549ACF9146
:1003500008958BE10E94AB088BE50E94AB088FE308
:100360000E94AB0888E30E94AB0888E60C94AB08B7
:100370008BE10E94AB088BE50E94AB0881E00E94F4
:10038000720180E50C94AB080E94A904EBE6F1E051
:1003900081E08083118270E060E081E090E00C9465
:1003A0001E0408958830F9F048F48230B1F08430AA
:1003B000B9F0813041F490E080E008958032C9F0D6
:1003C00028F4803199F088E090E008958034A1F01D
:1003D0008038C9F787E090E0089581E090E00895C3
:1003E00082E090E0089583E090E0089584E090E05A
:1003F000089585E090E0089586E090E008958FE705
:1004000081BB14BA8FEF87BB86B3806E88BBEBE6E7
:10041000F1E081E08083118210926400E3E7F2E072
:10042000108211820895CF93DF93C82F862FD09129
:100430006400D13009F444C078F0D23009F45EC0D1
:1004400080916300882309F480C0813009F481C061
:1004500080E0DF91CF9108950E94D201FC01EE0F60
:10046000FF1FEE0FFF1FEC0FF11DEC5AFF4FE49141
:1004700080916300813081F481E1E13151F3ED300D
:1004800009F46AC0E83009F467C080EE8E0FEF30DF
:1004900061F410926300D4CFEF3031F48111D0CFEA
:1004A00081E080936300CCCF8E2FE73091F681E01E
:1004B000809364001092630086B38F7B88BBC0CFAB
:1004C0000E94D201FC01EE0FFF1FEE0FFF1FEC0F89
:1004D000F11DEC58FF4FE4918E2FEF3061F58091C4
:1004E0006300811106C0D093630082E080936400B2
:1004F000E3CF8130D1F710926300F7CF0E94D20191
:10050000FC01EE0FFF1FEE0FFF1FEC0FF11DEC566D
:10051000FF4FE4918E2FEF3071F4809163008111D1
:1005200005C081E08093630081E0E0CF8130E1F796
:1005300010926300F9CFE73009F08BCF109263007F
:100540001092640086B38064B9CF86B3806888BB9C
:100550007FCF86B38F77FBCF8E2F7BCF8DE00E942E
:10056000AB081092740208958BE691E00E94BA04E1
:100570002091630080916B01222351F0213061F1C1
:1005800060916C0170E080916B0190E00C941E040E
:100590002091730290917402291791F3882321F01E
:1005A000813091F4222381F088E780936B01809160
:1005B0006C01815080936C019F5F9093740264E49E
:1005C00081E00E948F01DCCF992321F08650809337
:1005D0006B01F2CF8750FBCF90917402992381F287
:1005E000915090937402883770F080916C018F5F06
:1005F000911106C020936B0180936C0163E4E0CFFE
:1006000010926B01F9CF992321F08A5F80936B01DF
:10061000F5CF895FFBCF88E00C94AB08DF92EF92B7
:10062000FF920F931F93CF93DF9303E010E0C0E09E
:10063000D12CEE24E394F12C20B3C701002E01C08D
:10064000880F0A94EAF780952867822382BBD3B388
:10065000D09549F08D2F0E94D201089724F48DEF98
:10066000D82ED00ECD2F0F5F1F4F0730110521F769
:10067000CC2371F0809162008C1751F06C2F8D2D7E
:100680000E941302882321F08D3089F40E94AE026B
:10069000C093620086E690E20197F1F70000DF91D7
:1006A000CF911F910F91FF90EF90DF9008958131CE
:1006B00019F40E94B402ECCF883019F40E940B03A5
:1006C000E7CF823129F485E792E00E94E607E0CF88
:1006D000833129F485E792E00E940208D9CF9091F6
:1006E00073029F5F909373020E94AB084091760261
:1006F000483070F269EF640F6093750285E792E00D
:100700000E945607C5CFC19A0895892B11F0C39A4C
:100710000895C3980895892B11F0C29A0895C2983C
:100720000895892B11F00C948303C1980895892BA7
:1007300011F0929A089592980895892B11F0C49A15
:100740000895C4980895892B11F0C09A0895C0980F
:100750000895C19A82E18A95F1F700C0C19882E1BB
:100760008A95F1F700C00895CF93C82FC39A90E0FF
:1007700080E00E948B03CBBB84E08A95F1F7CF9198
:100780000C94A90390E080E00E94970390E080E041
:100790000E949D0390E080E00E94850390E080E04D
:1007A0000E948B038FE38BBB0C94A903CF93C82FBC
:1007B00090E080E00E94970390E080E00E949D031B
:1007C00090E080E00E94850390E080E00E948B032F
:1007D000C06CCBBBCF910C94A903CF93C82F90E0F2
:1007E00080E00E94850390E080E00E948B03C0348B
:1007F00058F490E080E00E949703C49ACF73C064DD
:10080000CBBBCF910C94A903929A90E080E00E9418
:100810009D03C054F3CFCF93DF93EC0190E080E0D1
:100820000E94850390E080E00E948B03C770DD2763
:10083000C86BCBBBDF91CF910C94A903CF93DF930F
:10084000EB010E94ED03CE01DF91CF910C940B04DC
:10085000FC018091610081111FC08081618170E085
:100860009091600090959093600090E00E941E042B
:100870008091650090916600019690936600809348
:100880006500893C910544F0809160000E94B403AA
:10089000109266001092650008957F928F929F9249
:1008A000AF92BF92CF92DF92EF92FF920F931F937E
:1008B000CF93DF93782EC62FD0E04E018E01C22E4B
:1008C000D12CA42EB12C0C151D0574F0DF91CF9105
:1008D0001F910F91FF90EF90DF90CF90BF90AF905E
:1008E0009F908F907F900895C017D1070CF4712CC2
:1008F000E72CF12CAE14BF0434F40F5F1F4F8FEFC1
:10090000881A980AE0CFB401C7010E941E0480E053
:100910000E94B4038FEFE81AF80AECCFCF93DF936D
:10092000EC01BC0190E080E00E941E04BE0180E466
:1009300090E00E941E0490E080E00E949703C1E4D2
:10094000D0E080E00E94B4032197D9F7DF91CF91E6
:100950000895CF93DF93D0E0C0E0CE010E948E04D3
:100960002196C830D105C9F7DF91CF9108958093C2
:1009700061000895FC01618170E0808190E00E9437
:100980001E0480E00C94B403FC018081853730F0B4
:1009900081E0808381818F5F81830895843711F0A6
:1009A0008A5F80830895CF9390E080E00E94910356
:1009B00084E08A95F1F790E080E00E948B0390E05C
:1009C00080E00E94850384E08A95F1F70E9483030A
:1009D00082E18A95F1F700C090E080E00E949103E7
:1009E00082E18A95F1F700C00E94830384E08A9532
:1009F000F1F7C9B390E080E00E94910384E08A950A
:100A0000F1F78C2F8075CF910895CF931ABA24E017
:100A10002A95F1F7C29AC39A8034910534F590E093
:100A200080E00E949703C49A84E08A95F1F70E94BF
:100A3000830324E02A95F1F790E080E00E9491037F
:100A400085E28A95F1F70E94830324E02A95F1F765
:100A5000C9B390E080E00E94910384E08A95F1F7A9
:100A60008FEF8ABB8C2FCF910895929A90E080E00F
:100A70000E949D03D9CFAF92BF92CF92DF92EF92A7
:100A8000FF920F931F93CF937C015B016A018B014F
:100A900077FF02C0095F1F4F83E0159507958A9580
:100AA000E1F7B801C7010E941E04C114D10431F05E
:100AB00081E0C816D10419F1C0E011C0C7010E943D
:100AC0000505C82FC50168E070E00E940B0921E010
:100AD00030E001C0220F8A95EAF72095C223B801C1
:100AE000C7010E941E048C2FCF911F910F91FF9080
:100AF000EF90DF90CF90BF90AF900C94B403C701FC
:100B00000E940505C82FC50168E070E00E940B092E
:100B100001C0CC0C8A95EAF7CC29E1CFCF92DF92C5
:100B2000EF92FF920F931F93CF93DF937B016901A5
:100B3000EC018C01040F151FC017D10748F0DF919D
:100B4000CF911F910F91FF90EF90DF90CF9008957C
:100B5000A601B701CE010E943B052196EDCFCF92B1
:100B6000DF92EF92FF920F931F93CF93DF937C015D
:100B70006901EB018B01040F151FC017D10748F065
:100B8000DF91CF911F910F91FF90EF90DF90CF9069
:100B90000895A601BE01C7010E943B052196EDCF35
:100BA000CF92DF92EF92FF920F931F93CF93DF9339
:100BB0008052990B25E0289F6001299FD00C1124B9
:100BC000042F10E0E62EF12CB801C7010E941E048C
:100BD000D0E0C0E0C6018C549F4F6C01C7018C0F60
:100BE0009D1F8034910529F4B80180E490E00E94B3
:100BF0001E04F601EC0FFD1F84910E94B4032196A0
:100C0000C530D10559F7DF91CF911F910F91FF901A
:100C1000EF90DF90CF900895CF93DF9380936B0197
:100C200060936C0170E090E00E941E04C4E9D2E081
:100C3000FE01849140916C0160916B010E94D0058E
:100C40008BE691E00E94C4042196F2E0C53ADF07EA
:100C500079F7DF91CF9108958FEF8ABB97B387BB68
:100C600081B38F6781BB84E08A95F1F781E090E0E2
:100C70000E94970381E090E00E949D0381E090E054
:100C80000E94A30384E08A95F1F70E94C20380E0EA
:100C90000E94D60388EB8A95F1F700000E94A90410
:100CA00065E08FE00E940C060E94FF0187E490E05F
:100CB0000E94930885E792E00E94680678948BE68C
:100CC00091E00E9428040E944C080E940E03F7CF76
:100CD000FC011082118213821282089591E08A3001
:100CE00009F090E0892F089591E08D3009F090E0AF
:100CF000892F089543971CF490E080E0089583E1E4
:100D000090E00895CF92DF92EF92FF921F93CF93DE
:100D1000DF93EC01162F8A81853120F08B811A82B6
:100D20008F5F8B838B818331B0F01A82CE01059661
:100D30006E0123E4C21A2EEFD20A7C01E6E1EE0E28
:100D4000F11CB7010E943309C701EC14FD04A9F797
:100D50008B8181508B838B81682F70E04A81242F97
:100D600030E01A30F9F496E1969FF001979FF00D6C
:100D70001124EC0FFD1FE20FF31F158316821A8258
:100D80008F5F8B838B818983883010F087508883B5
:100D900080E0DF91CF911F91FF90EF90DF90CF9097
:100DA0000C94B704509174024F5F552321F1E6E192
:100DB0008E9FC0011124F901E80FF91FEC0FFD1FF0
:100DC0008C0F9D1F251B3109DF01A81BB90BA21732
:100DD000B3076CF486E1869FF001879FF00D112424
:100DE000EC0FFD1FE20FF31F15834A83CBCF558114
:100DF00056833197E9CF86E1869FF001879FF00DFA
:100E00001124EC0FFD1FE20FF31F15831682EDCFA7
:100E1000CF93DF93FC01838196E1EF01899FC00DA1
:100E2000D11D112425962881211108C0815083836A
:100E3000EF01899FC00DD11D11242596DE010D9073
:100E40000020E9F71197AC1BBD0BA283228130E093
:100E5000C901019740917402841B91094381BF012C
:100E600056E1459F600D711D11248217930794F080
:100E7000EF0156E1459FC00DD11D11242596DE01DD
:100E80000D900020E9F71197AC1BBD0BA283DF91F9
:100E9000CF910895DC011196EB01CA0FDB1F5D8134
:100EA000860F971FEC015D83CD01DFCF8F929F925C
:100EB000AF92BF92CF92DF92EF92FF920F931F9368
:100EC000CF93DF93EC01F62EE42E9924939486E1E0
:100ED000882E0E94A90490926B0110926C0170E020
:100EE00060E081E090E00E941E040F2D10E0F89C6D
:100EF000C00DD11D1124F12CE016F1062CF5209126
:100F00007402222351F080916B018150922F990F2E
:100F1000920F990F891B80936B0160916C0170E0B7
:100F200080916B0190E00E941E0480916C018830DA
:100F300008F43FC0F0907502F394F0927502C5E793
:100F4000D2E0E0907602C5CFDE011596FD0101905A
:100F50000020E9F731976F01CA1ADB0A31F1B12C91
:100F6000A12CFE01EA0DFB1D85818D3061F04091C1
:100F70006C018A3079F060916B010E94D0058BE69C
:100F800091E00E94C4048FEFA81AB80AAC14BD0403
:100F900044F30BC090926B014F5F40936C01642F40
:100FA00070E081E090E00E941E040F5F1F4F669684
:100FB000A3CFDF91CF911F910F91FF90EF90DF9022
:100FC000CF90BF90AF909F908F900895CF93DF9375
:100FD000EC018981883098F09FEF980F99838850B1
:100FE00088838BE691E00E94BA0481E00E94B704F6
:100FF00049816881CE01DF91CF910C945607DF9132
:10100000CF910895CF93DF93EC0189819B8189175C
:1010100098F491E0980F9983865088838BE691E04D
:101020000E94BA0481E00E94B70449816881CE0120
:10103000DF91CF910C945607DF91CF910895FC0179
:1010400011821082138212820895FC0181E090E0E7
:1010500040815181228133814217530711F490E07E
:1010600080E00895FC01808191819C012F5F3F4FBA
:10107000332731832083E80FF91F84810895FC0111
:1010800022813381E20FF31F64832F5F3F4F3327A9
:10109000FC01338322830895209171013091720104
:1010A00080916F019091700128173907D9F18FE66F
:1010B00091E00E9432088B3171F58FE691E00E9439
:1010C00032088FE691E00E9432088FE691E00E949C
:1010D000320820916F0130917001809171019091DF
:1010E000720128173907F1F08FE691E00E9432086B
:1010F000883099F08B31B1F08730A1F0682F85E707
:1011000092E00E948206409176026091750285E726
:1011100092E00C945607883079F785E792E00E94B8
:101120000807F1CF089590BD89B9EFE6F1E011828B
:10113000108213821282E7E6F0E01182108213829D
:1011400012828BB188638BB98AB1886D8AB980B5F8
:101150008E6880BD0895682F87E690E00E943F0862
:101160008AB180668AB95D9A08951F920F920FB670
:101170000F9211242F933F934F935F936F937F931D
:101180008F939F93AF93BF93EF93FF9387E690E086
:101190000E9432088CB9559856988BB180728BB9E1
:1011A000FF91EF91BF91AF919F918F917F916F913F
:1011B0005F914F913F912F910F900FBE0F901F9015
:1011C00018951F920F920FB60F9211242F933F93F1
:1011D0004F935F936F937F938F939F93AF93BF933F
:1011E000EF93FF938BB1877029F46CB18FE691E098
:1011F0000E943F08FF91EF91BF91AF919F918F9116
:101200007F916F915F914F913F912F910F900FBE02
:101210000F901F90189597FB072E16F4009407D097
:1012200077FD09D00E941F0907FC05D03EF4909578
:1012300081959F4F0895709561957F4F0895AA1BE2
:10124000BB1B51E107C0AA1FBB1FA617B70710F0B1
:10125000A61BB70B881F991F5A95A9F780959095E3
:10126000BC01CD010895FB01DC0101900D9200202D
:08127000E1F70895F894FFCFA7
:02127800FF0174
:00000001FF
